:100000000C942A000C9447000C9447000C94470071
:100010000C9447000C9447000C9447000C94F10C8E
:100020000C9447000C9447000C9447000C94470034
:100030000C9447000C9447000C9447000C94470024
:100040000C9447000C9447000C9447000C94470014
:100050000C94470011241FBECFE5D8E0DEBFCDBF12
:1000600011E0A0E6B0E0E0E9F8E502C005900D92ED
:10007000A433B107D9F715E0A4E3B1E001C01D92A4
:10008000AE3DB107E1F70E948B280C94462C0C94EE
:100090000000EF92FF920F931F937B018C0120E0F1
:1000A00030E040E05FE40E94490388238CF0C801FF
:1000B000B70120E030E040E05FE40E94C1010E940F
:1000C000A9039B01AC01205030404040504806C07D
:1000D000C801B7010E94A9039B01AC01B901CA0183
:1000E0001F910F91FF90EF900895A0E0B0E0EBE733
:1000F000F0E00C94F02BDC012B01FA019C91923082
:1001000008F439C1EB018881823008F433C194309E
:1001100069F4843009F02FC111969C91119789815F
:10012000981709F428C1AAE1B1E025C1843009F487
:1001300021C18230A9F4923009F01DC19A01AD01AC
:1001400088E0EA010990AE01E90109929E0181501F
:10015000C1F7E201898111969C918923818308C1AD
:10016000923009F407C112962D903C901397EB0141
:100170008A819B811496AD90BD90CD90DC901797AD
:10018000EC80FD800E811F819101281B390BB90184
:1001900037FF04C066277727621B730B6032710537
:1001A0000CF061C0121613066CF537014801062EDB
:1001B00004C096948794779467940A94D2F721E0C8
:1001C00030E040E050E004C0220F331F441F551FB1
:1001D0006A95D2F721503040404050402E213F21B7
:1001E00040235123211531054105510521F021E01E
:1001F00030E040E050E079018A01E628F72808293C
:1002000019293CC0232BD1F1260E371E350146019A
:10021000062E04C096948794779467940A94D2F734
:1002200021E030E040E050E004C0220F331F441FC3
:10023000551F6A95D2F721503040404050402A2146
:100240003B214C215D21211531054105510521F04E
:1002500021E030E040E050E059016A01A628B728CB
:10026000C828D9280BC0821593052CF01C01AA249C
:10027000BB24650103C0EE24FF24870111969C91E5
:10028000D20111968C91981709F445C0992339F041
:10029000A80197012A193B094C095D0906C0A6016E
:1002A00095012E193F09400B510B57FD08C01182D3
:1002B0003382228224833583468357831DC081E0A5
:1002C00081833382228288279927DC01821B930B4A
:1002D000A40BB50B84839583A683B7830DC0220F2F
:1002E000331F441F551F24833583468357838281E0
:1002F000938101979383828324813581468157813D
:10030000DA01C9010197A109B1098F5F9F4FAF4F72
:10031000BF4328F30BC0918333822282EA0CFB1C7B
:100320000C1D1D1DE482F5820683178383E0808304
:10033000248135814681578157FF1AC0C901AA27F8
:1003400097FDA095BA2F81709070A070B0705695EF
:10035000479537952795822B932BA42BB52B848318
:100360009583A683B7838281938101969383828349
:10037000DF0101C0D201CD01CDB7DEB7E2E10C94BF
:100380000C2CA0E2B0E0E7ECF1E00C94FC2B6983CC
:100390007A838B839C832D833E834F835887E9E048
:1003A000EE2EF12CEC0EFD1ECE010196B7010E943F
:1003B000D2048E010F5E1F4FCE010596B8010E9438
:1003C000D2048A8991E089278A8BC701B801AE01DE
:1003D000475E5F4F0E9475000E94FD03A096E6E015
:1003E0000C94182CA0E2B0E0E8EFF1E00C94FC2BA8
:1003F00069837A838B839C832D833E834F835887C5
:10040000F9E0EF2EF12CEC0EFD1ECE010196B701A6
:100410000E94D2048E010F5E1F4FCE010596B801D7
:100420000E94D204C701B801AE01475E5F4F0E942F
:1004300075000E94FD03A096E6E00C94182CA0E243
:10044000B0E0E5E2F2E00C94F02B69837A838B83D1
:100450009C832D833E834F835887CE010196BE0136
:10046000675F7F4F0E94D204CE010596BE016F5E8A
:100470007F4F0E94D2049985923088F0898982301A
:10048000C8F0943019F4823051F404C0843029F457
:10049000923081F48AE191E0C6C0923049F420E0C4
:1004A0009A858A89981321E02A87CE010996BBC0D4
:1004B000823049F420E09A858A89981321E02A8BBA
:1004C000CE014196B0C02D843E844F8458886D88FB
:1004D0007E888F88988CEE24FF248701AA24BB2471
:1004E000650140E050E060E070E0E0E0F0E0C10174
:1004F00081709070892BE9F0E60CF71C081D191D1E
:100500009A01AB012A0D3B1D4C1D5D1D80E090E062
:10051000A0E0B0E0E614F7040805190520F481E036
:1005200090E0A0E0B0E0BA01A901480F591F6A1F8E
:100530007B1FAA0CBB1CCC1CDD1C97FE08C081E0F5
:1005400090E0A0E0B0E0A82AB92ACA2ADB2A3196B6
:10055000E032F10549F0660C771C881C991C569412
:10056000479437942794C3CFFA85EA892B893C892D
:100570008B859C85280F391F2E5F3F4F17C0CA01FE
:1005800081709070892B61F016950795F794E79428
:1005900080E090E0A0E0B0E8E82AF92A0A2B1B2BC3
:1005A00076956795579547952F5F3F4F77FDE7CF36
:1005B0000CC0440F551F661F771F17FD4160EE0CDE
:1005C000FF1C001F111F21503040403090E05907A0
:1005D00090E0690790E4790760F32B8F3C8FDB0193
:1005E000CA018F779070A070B07080349105A1051A
:1005F000B10561F447FD0AC0E114F10401051105DC
:1006000029F0405C5F4F6F4F7F4F40781A8EFE1786
:1006100011F081E08A8F4D8F5E8F6F8F78A383E01A
:10062000898FCE0149960E94FD03A096E2E10C94C9
:100630000C2CA8E1B0E0EFE1F3E00C94FC2B698313
:100640007A838B839C832D833E834F83588789E0F5
:10065000E82EF12CEC0EFD1ECE010196B7010E9492
:10066000D2048E010F5E1F4FCE010596B8010E9485
:10067000D2048985823040F08989823028F0C70110
:10068000B8010E944A0501C08FEF6896E6E00C941D
:10069000182CA8E1B0E0EFE4F3E00C94FC2B6983A4
:1006A0007A838B839C832D833E834F83588789E095
:1006B000E82EF12CEC0EFD1ECE010196B7010E9432
:1006C000D2048E010F5E1F4FCE010596B8010E9425
:1006D000D2048985823040F08989823028F0C701B0
:1006E000B8010E944A0501C08FEF6896E6E00C94BD
:1006F000182CA8E1B0E0EFE7F3E00C94FC2B698341
:100700007A838B839C832D833E834F83588789E034
:10071000E82EF12CEC0EFD1ECE010196B7010E94D1
:10072000D2048E010F5E1F4FCE010596B8010E94C4
:10073000D2048985823040F08989823028F0C7014F
:10074000B8010E944A0501C081E06896E6E00C9479
:10075000182CACE0B0E0EFEAF3E00C94002C6983D5
:100760007A838B839C83CE010196BE016B5F7F4FA2
:100770000E94D2048D81823061F1823050F1843048
:1007800021F48E81882351F12EC02F81388537FDC9
:1007900020C06E812F3131051CF06623F9F023C093
:1007A0008EE190E0821B930B29853A854B855C8511
:1007B00004C056954795379527958A95D2F76623B5
:1007C000B1F050954095309521953F4F4F4F5F4F79
:1007D0000EC020E030E040E050E009C02FEF3FEFD6
:1007E0004FEF5FE704C020E030E040E050E8B9019F
:1007F000CA012C96E2E00C941C2CDF92EF92FF923F
:100800000F931F93FC01E480F58006811781D1804E
:100810008081823048F480E090E0A0E1B0E0E82AF6
:10082000F92A0A2B1B2BA5C0843009F49FC0823003
:1008300021F4EE24FF24870105C0E114F104010531
:10084000110519F4E0E0F0E096C0628173819FEF3A
:10085000623879070CF05BC022E83FEF261B370BAC
:100860002A3131052CF020E030E040E050E02AC091
:10087000B801A701022E04C0769567955795479554
:100880000A94D2F781E090E0A0E0B0E004C0880FC5
:10089000991FAA1FBB1F2A95D2F70197A109B10979
:1008A0008E219F21A023B1230097A105B10521F03E
:1008B00081E090E0A0E0B0E09A01AB01282B392B59
:1008C0004A2B5B2BDA01C9018F779070A070B07052
:1008D00080349105A105B10539F427FF09C0205CDA
:1008E0003F4F4F4F5F4F04C0215C3F4F4F4F5F4F13
:1008F000E0E0F0E02030A0E03A07A0E04A07A0E402
:100900005A0710F0E1E0F0E079018A0127C0603871
:10091000710564F5FB01E158FF4FD801C7018F77DE
:100920009070A070B07080349105A105B10539F4C4
:10093000E7FE0DC080E490E0A0E0B0E004C08FE3EB
:1009400090E0A0E0B0E0E80EF91E0A1F1B1F17FFA1
:1009500005C016950795F794E794319687E01695AC
:100960000795F794E7948A95D1F705C0EE24FF2404
:100970008701EFEFF0E06E2F679566276795902F60
:100980009F77D794DD24D7948E2F8695492F462BB9
:10099000582F5D29B701CA011F910F91FF90EF9069
:1009A000DF900895FC01DB01408151812281622F9B
:1009B0006F7770E0221F2227221F9381892F880FD3
:1009C000822B282F30E0991F9927991F11969C930D
:1009D000119721153105A9F54115510561057105DD
:1009E00011F482E037C082E89FEF13969C938E93B8
:1009F00012979A01AB0167E0220F331F441F551F66
:100A00006A95D1F783E08C930DC0220F331F441FEA
:100A1000551F12968D919C911397019713969C9355
:100A20008E931297203080E0380780E0480780E4FA
:100A3000580758F314962D933D934D935C93179755
:100A400008952F3F310579F4411551056105710570
:100A500019F484E08C93089564FF03C081E08C93C3
:100A600012C01C9210C02F57304013963C932E9307
:100A7000129783E08C9387E0440F551F661F771F02
:100A80008A95D1F7706414964D935D936D937C9322
:100A9000179708951F93DC01FB019C91923008F495
:100AA00047C08081823008F443C0943051F41196DD
:100AB0001C91843099F58181682F70E0611B710968
:100AC0003FC0843021F0923031F48230B9F181811D
:100AD000882389F12DC011961C9111978230F1F075
:100AE00081811817D9F412962D913C911397828128
:100AF00093818217930794F028173907BCF0149656
:100B00008D919D910D90BC91A02D248135814681C0
:100B10005781281739074A075B0718F4112341F05A
:100B20000AC082179307A407B50740F4112319F0F0
:100B300061E070E005C06FEF7FEF02C060E070E041
:100B4000CB011F910895DF93CF93CDB7DEB72797E1
:100B50000FB6F894DEBF0FBECDBF9D838C836E832E
:100B60004F838AE190E00E947B089A838983898180
:100B70009A81009709F46FC08091340190913501FA
:100B8000009741F489819A819093350180933401D3
:100B90000E940A088E81823010F081E08E83E98104
:100BA000FA81118E108EE981FA818E81868BE9811E
:100BB000FA818F81878BE981FA818C819D81918374
:100BC000808389819A8102960E94110989819A8184
:100BD0000C960E941109E981FA8189819A81918795
:100BE0008087E981FA8189819A81938B828B8E81BA
:100BF000282F30E085E090E0821B930BE981FA8199
:100C000095878487E981FA819689809136018917D1
:100C100028F4E981FA81868980933601E981FA8195
:100C20008689282F30E0C901880F991F880F991FE6
:100C3000880F991F820F931FAC01435C5E4F89811F
:100C40009A819C012E5F3F4FCA01B9010E94210980
:100C500081E08B8302C08FEF8B838B8127960FB649
:100C6000F894DEBF0FBECDBFCF91DF910895DF9323
:100C7000CF9300D000D000D0CDB7DEB79C838B835C
:100C80007E836D8320913701309138018B819C8167
:100C9000820F931F9A83898380913401909135014B
:100CA00002960E94D909E0913401F09135018981C1
:100CB0009A81938382832091370130913801898111
:100CC0009A818217930770F4809163019091640177
:100CD00020913401309135012E5F3F4FB9010E94C0
:100CE0006D090DC0809161019091620120913401E4
:100CF000309135012E5F3F4FB9010E946D098D8102
:100D00009E81009761F080913401909135019C01A2
:100D1000245F3F4F8D819E81B9010E946D09269607
:100D20000FB6F894DEBF0FBECDBFCF91DF9108950F
:100D3000DF93CF9300D0CDB7DEB73AC0F894E091FF
:100D40006A01F0916B01868197819A8389838981F9
:100D50009A810C960E94D909789489819A81029689
:100D60000E94D909E981FA81968980913601891713
:100D700028F4E981FA81868980933601E981FA8134
:100D80008689282F30E0C901880F991F880F991F85
:100D9000880F991F820F931FAC01435C5E4F8981BE
:100DA0009A819C012E5F3F4FCA01B9010E9421091F
:100DB00080916501882309F0C1CF0F900F90CF91EA
:100DC000DF910895DF93CF9300D000D0CDB7DEB789
:100DD0000E94DF142091390130913A01821B930B5C
:100DE00090933C0180933B0185C0809137019091A5
:100DF00038010196909338018093370180913B012F
:100E000090913C01019790933C0180933B0180912C
:100E1000370190913801009709F064C08091610119
:100E2000909162019A83898380916301909164011A
:100E3000909362018093610189819A81909364010A
:100E4000809363014FC0E0916101F09162010580E0
:100E5000F681E02D868197819C838B83EB81FC81D9
:100E60002281338180913701909138018217930755
:100E700008F440C0F8948B819C8102960E94D909A5
:100E8000EB81FC8184899589009729F08B819C8175
:100E90000C960E94D9097894EB81FC819689809107
:100EA0003601891728F4EB81FC818689809336010D
:100EB000EB81FC818689282F30E0C901880F991FBA
:100EC000880F991F880F991F820F931FAC01435CF5
:100ED0005E4F8B819C819C012E5F3F4FCA01B901FF
:100EE0000E942109E0916101F091620180818823D3
:100EF00009F0A9CF80913B0190913C01009709F046
:100F000074CF809137019091380190933A0180938A
:100F100039010F900F900F900F90CF91DF910895AE
:100F2000DF93CF9300D0CDB7DEB70E9498060E9422
:100F3000E2060AC080913601882309F466C08091D8
:100F4000360181508093360180913601282F30E0A0
:100F5000C901880F991F880F991F880F991F820F49
:100F6000931FFC01E35CFE4F8081882319F380917D
:100F70003601282F30E0C901880F991F880F991F6B
:100F8000880F991F820F931F835C9E4F9A838983DA
:100F9000E981FA810180F281E02D82819381E981EA
:100FA000FA8192838183E981FA8121813281898169
:100FB0009A8103962817390759F4E981FA8101804B
:100FC000F281E02D82819381E981FA81928381838C
:100FD000E981FA810180F281E02D868197819093E9
:100FE000350180933401E0913401F0913501408165
:100FF00051818091340190913501E0913401F0915B
:1010000035012789622FFA0109950F900F90CF9132
:10101000DF910895DF93CF930F92CDB7DEB719829A
:1010200013C08981282F30E0C901880F991F880FCC
:10103000991F880F991F820F931F835C9E4F0E94F8
:10104000E70889818F5F89838981823050F38FE43B
:1010500091E00E94E70888E591E00E94E70885E6B4
:1010600091E00E94E7088FE491E090936201809301
:10107000610188E591E090936401809363010F9092
:10108000CF91DF910895DF93CF9300D000D00F92DE
:10109000CDB7DEB79D838C83EC81FD810580F68121
:1010A000E02D868197819B838A838A819B810C9620
:1010B0000E94D9098A819B819C01245F3F4F85E66C
:1010C00091E0B9010E942109EA81FB819689E091B2
:1010D0003401F09135018689981718F081E08983F1
:1010E00001C0198289810F900F900F900F900F907F
:1010F000CF91DF910895DF93CF9300D000D0CDB78B
:10110000DEB79C838B831A8219820E9449148091D6
:101110006E0190916F012B813C81820F931F23E020
:10112000883E920718F520916E0130916F018B81F6
:101130009C81280F391F80916E0190916F01821759
:101140009307A0F480916E0190916F0180599E4F9A
:101150009A83898320916E0130916F018B819C81EC
:10116000820F931F90936F0180936E010E9455141C
:1011700089819A810F900F900F900F90CF91DF91FE
:101180000895DF93CF9300D0CDB7DEB79A838983DC
:101190000F900F90CF91DF910895DF93CF93CDB74C
:1011A000DEB710926F0110926E01CF91DF9108951A
:1011B000DF93CF93CDB7DEB720916E0130916F01F1
:1011C00088EE93E0821B930BCF91DF910895DF931C
:1011D000CF9300D0CDB7DEB79A83898389819A8176
:1011E0000396E981FA8192838183E981FA818FEF05
:1011F0009FEF9483838389819A810396E981FA81A1
:101200009683858389819A810396E981FA81908703
:101210008783E981FA8110820F900F90CF91DF913F
:101220000895DF93CF9300D0CDB7DEB79A8389833B
:10123000E981FA81118610860F900F90CF91DF918E
:101240000895DF93CF9300D000D000D0CDB7DEB7A4
:101250009C838B837E836D83EB81FC818181928172
:101260009A838983E981FA8182819381ED81FE816C
:1012700093838283EB81FC8181819281ED81FE8168
:1012800095838483E981FA810280F381E02D8D8149
:101290009E81958384838D819E81E981FA819383E8
:1012A00082838D819E81EB81FC8192838183ED819C
:1012B000FE818B819C8191878087EB81FC8180817D
:1012C0008F5FEB81FC81808326960FB6F894DEBF9A
:1012D0000FBECDBFCF91DF910895DF93CF93CDB7F0
:1012E000DEB728970FB6F894DEBF0FBECDBF9E8342
:1012F0008D8378876F83EF81F885808191819A83D0
:10130000898389819A812FEF8F3F920739F4ED818C
:10131000FE81878190859C838B8318C08D819E81FF
:1013200003969C838B8306C0EB81FC818281938131
:101330009C838B83EB81FC810280F381E02D2081F3
:10134000318189819A818217930770F7EB81FC8143
:1013500082819381EF81F88593838283EF81F88581
:101360000280F381E02D8F81988595838483EF81BE
:10137000F8858B819C81958384838F819885EB810F
:10138000FC8193838283EF81F8858D819E81918793
:101390008087ED81FE8180818F5FED81FE8180837A
:1013A00028960FB6F894DEBF0FBECDBFCF91DF9168
:1013B0000895DF93CF9300D000D0CDB7DEB79C83E4
:1013C0008B83EB81FC81A281B381EB81FC818481E1
:1013D000958115969C938E931497EB81FC81A48143
:1013E000B581EB81FC818281938113969C938E93CE
:1013F0001297EB81FC81808591859A838983E981AD
:10140000FA81218132818B819C812817390741F42F
:10141000EB81FC8184819581E981FA8192838183CA
:10142000EB81FC8111861086E981FA8180818150EF
:10143000E981FA8180830F900F900F900F90CF91E8
:10144000DF910895DF93CF93CDB7DEB728970FB61E
:10145000F894DEBF0FBECDBF9C838B837E836D83EC
:1014600058874F83EB81FC8181E180838B819C8154
:1014700001979C838B83EB81FC8182E280838B814B
:101480009C8101979C838B83EB81FC8183E3808328
:101490008B819C8101979C838B838D819E819A8314
:1014A00089838981EB81FC8180838B819C81019779
:1014B0009C838B8389819A81892F99279A83898339
:1014C0008981EB81FC8180838B819C8101979C8346
:1014D0008B83EB81FC8110828B819C8101979C83A3
:1014E0008B83EB81FC8180E880838B819C810197D9
:1014F0009C838B83EB81FC8110828B819C81019783
:101500009C838B83EB81FC8182E080838B819C8137
:1015100001979C838B83EB81FC8183E080838B81AB
:101520009C8101979C838B83EB81FC8184E0808389
:101530008B819C8101979C838B83EB81FC8185E06F
:1015400080838B819C8101979C838B83EB81FC81C1
:1015500086E080838B819C8101979C838B83EB81C8
:10156000FC8187E080838B819C8101979C838B83A6
:10157000EB81FC8188E080838B819C8101979C8337
:101580008B83EB81FC8189E080838B819C81019737
:101590009C838B83EB81FC8180E180838B819C81A8
:1015A00001979C838B83EB81FC8181E180838B811C
:1015B0009C8101979C838B83EB81FC8182E18083FA
:1015C0008B819C8101979C838B83EB81FC8183E1E0
:1015D00080838B819C8101979C838B83EB81FC8131
:1015E00084E180838B819C8101979C838B83EB8139
:1015F000FC8185E180838B819C8101979C838B8317
:10160000EB81FC8186E180838B819C8101979C83A7
:101610008B83EB81FC8187E180838B819C810197A7
:101620009C838B83EB81FC8188E180838B819C810F
:1016300001979C838B83EB81FC8189E180838B8183
:101640009C8101979C838B83EB81FC8180E280836A
:101650008B819C8101979C838B83EB81FC8181E250
:1016600080838B819C8101979C838B83EB81FC81A0
:1016700082E280838B819C8101979C838B83EB81A9
:10168000FC8183E280838B819C8101979C838B8387
:101690008F8198859A8389838981EB81FC818083FE
:1016A0008B819C8101979C838B8389819A81892F6F
:1016B00099279A8389838981EB81FC8180838B813F
:1016C0009C8101979C838B83EB81FC8186E28083E4
:1016D0008B819C8101979C838B83EB81FC8187E2CA
:1016E00080838B819C8101979C838B83EB81FC8120
:1016F00088E280838B819C8101979C838B83EB8123
:10170000FC8189E280838B819C8101979C838B8300
:10171000EB81FC8180E380838B819C8101979C839A
:101720008B83EB81FC8181E380838B819C8101979A
:101730009C838B838B819C8128960FB6F894DEBFA7
:101740000FBECDBFCF91DF910895DF93CF93CDB77B
:10175000DEB70E94950CA0915805B0915905CD9126
:10176000CDBFDD91DEBFFF91EF91DF91CF91BF91B2
:10177000AF919F918F917F916F915F914F913F9129
:101780002F911F910F91FF90EF90DF90CF90BF901E
:10179000AF909F908F907F906F905F904F903F9011
:1017A0002F901F900F900FBE0F90089581E0CF9162
:1017B000DF910895DF93CF93CDB7DEB7CF91DF915F
:1017C00008950F920FB6F8940F921F9211242F9242
:1017D0003F924F925F926F927F928F929F92AF92C1
:1017E000BF92CF92DF92EF92FF920F931F932F93AE
:1017F0003F934F935F936F937F938F939F93AF9399
:10180000BF93CF93DF93EF93FF93A0915805B091CF
:1018100059050DB60D920EB60D920E94E915A091D4
:101820005805B0915905CD91CDBFDD91DEBFFF9137
:10183000EF91DF91CF91BF91AF919F918F917F9168
:101840006F915F914F913F912F911F910F91FF9059
:10185000EF90DF90CF90BF90AF909F908F907F9050
:101860006F905F904F903F902F901F900F900FBE02
:101870000F9008950F920FB6F8940F921F921124B3
:101880002F923F924F925F926F927F928F929F9290
:10189000AF92BF92CF92DF92EF92FF920F931F937E
:1018A0002F933F934F935F936F937F938F939F9368
:1018B000AF93BF93CF93DF93EF93FF93A09158051E
:1018C000B09159050DB60D920EB60D920E941415E9
:1018D0000E94E915A0915805B0915905CD91CDBF51
:1018E000DD91DEBFFF91EF91DF91CF91BF91AF917D
:1018F0009F918F917F916F915F914F913F912F9128
:101900001F910F91FF90EF90DF90CF90BF90AF901D
:101910009F908F907F906F905F904F903F902F900F
:101920001F900F900FBE0F900895DF93CF9300D0BC
:1019300000D000D0CDB7DEB780E49FE1A0E0B0E0FA
:101940008B839C83AD83BE838B819C81AD81BE8163
:10195000689415F8B695A795979587951694D1F73D
:101960008B839C83AD83BE838B819C81AD81BE8143
:101970000197A109B1098B839C83AD83BE838B81C1
:1019800089838B819C81AD81BE81892F9A2FAB2F5A
:10199000BB278B839C83AD83BE838B818A83EBE4DF
:1019A000F0E08A818083EAE4F0E0898180838BE043
:1019B0008983EEE4F0E089818083E9E5F0E08081CD
:1019C0008983898180618983E9E5F0E08981808369
:1019D00026960FB6F894DEBF0FBECDBFCF91DF9134
:1019E00008950E943A0C1895DF93CF93CDB7DEB7D8
:1019F00028970FB6F894DEBF0FBECDBF8F836887E0
:101A00001A8219828F81882309F48CC08FE190E0BB
:101A10000E947B089E838D838D819E81009709F4AF
:101A200081C08F81282F30E08885882F90E0AC011D
:101A3000249FC001259F900D349F900D1124019685
:101A40009C838B838B819C810E947B08ED81FE812E
:101A500091838083ED81FE8180819181009709F4DB
:101A60005DC0ED81FE81408151818F81282F30E062
:101A70008885882F90E0BC01269FC001279F900D8C
:101A8000369F900D1124840F951FED81FE81938365
:101A90008283ED81FE81128EED81FE8180819181B4
:101AA000ED81FE8195838483ED81FE8140815181AA
:101AB0008F81882F90E09C01215030408885882FAD
:101AC00090E0BC01269FC001279F900D369F900D8E
:101AD0001124840F951FED81FE8197838683ED810C
:101AE000FE818F81838FED81FE818885848FED81DA
:101AF000FE818FEF858FED81FE818FEF868F8D8147
:101B00009E8108960E94E7088D819E8141960E94E1
:101B1000E7088D819E819A83898304C08D819E818F
:101B20000E94C10889819A8128960FB6F894DEBF79
:101B30000FBECDBFCF91DF910895DF93CF9300D03B
:101B4000CDB7DEB78FE190E00E947B089A8389834E
:101B500089819A810097A9F1E981FA811382128221
:101B6000E981FA8111821082E981FA811582148259
:101B7000E981FA8117821682E981FA81128EE98160
:101B8000FA8181E0838FE981FA81148EE981FA81FB
:101B90008FEF858FE981FA818FEF868F89819A8116
:101BA00008960E94E70889819A8141960E94E70879
:101BB00089819A8160E070E040E050E020E00E947E
:101BC000070E89819A810F900F90CF91DF91089530
:101BD000DF93CF9300D000D0CDB7DEB78B836C837B
:101BE0008B8160E00E94F40C9A83898389819A81B9
:101BF000009721F0E981FA818C81828F89819A8115
:101C00000F900F900F900F90CF91DF910895DF9379
:101C1000CF93CDB7DEB72C970FB6F894DEBF0FBECB
:101C2000CDBF9E838D8378876F835A8749872B87A3
:101C300019820FB6F8940F92ED81FE81928DED819D
:101C4000FE81838D9817D8F48D819E812F813885F0
:101C5000B9014B850E945F10ED81FE818189882347
:101C600049F08D819E8141960E948516813011F444
:101C70000E94E10B0F900FBE81E08C875CC08985CC
:101C80009A85009721F40F900FBE1C8654C089815D
:101C9000882331F4CE0102960E94ED1681E08983FB
:101CA0000F900FBE0E9449140FB6F8940F92ED8169
:101CB000FE81858D8F3F19F4ED81FE81158EED81BA
:101CC000FE81868D8F3F19F4ED81FE81168E0F9077
:101CD0000FBECE0102969E01275F3F4FB9010E94C1
:101CE0000617882309F58D819E810E94D4118823CF
:101CF000A1F08D819E81089629853A85B9010E94BF
:101D00004F168D819E810E944D110E94551488238B
:101D100009F08FCF0E94E10B8CCF8D819E810E94B4
:101D20004D110E94551485CF8D819E810E944D11C9
:101D30000E9455141C868C852C960FB6F894DEBF35
:101D40000FBECDBFCF91DF910895DF93CF93CDB775
:101D5000DEB729970FB6F894DEBF0FBECDBF9C83C8
:101D60008B837E836D8358874F8329871982EB810C
:101D7000FC81928DEB81FC81838D981740F58B81DE
:101D80009C812D813E81B90149850E945F10EB81C4
:101D9000FC81868D8F3F89F4EB81FC8181898823CA
:101DA00099F08B819C8141960E948516882361F071
:101DB000EF81F88581E0808307C0EB81FC81868D0F
:101DC0008F5FEB81FC81868F81E08A8301C01A825C
:101DD0008A8129960FB6F894DEBF0FBECDBFCF9192
:101DE000DF910895DF93CF93CDB7DEB72E970FB66F
:101DF000F894DEBF0FBECDBF98878F837A8769873F
:101E00005C874B872D871B820FB6F8940F92EF816A
:101E1000F885828D882309F44BC0EF81F88586818F
:101E200097819A8389838F81988529853A85B9011D
:101E30000E9405118D85882311F5EF81F885828D2B
:101E40008150EF81F885828FEF81F88580819181C3
:101E5000009731F40E94FC18EF81F8859383828308
:101E6000EF81F88580858823F1F08F819885089629
:101E70000E9485168130B9F40E94E10B14C0EF81F5
:101E8000F88589819A8197838683EF81F885818996
:101E9000882349F08F81988541960E948516882372
:101EA00011F00E94E10B0F900FBE81E08E876DC094
:101EB0008B859C85009721F40F900FBE1E8665C010
:101EC0008B81882331F4CE0104960E94ED1681E0C7
:101ED0008B830F900FBE0E9449140FB6F8940F9297
:101EE000EF81F885858D8F3F19F4EF81F885158E88
:101EF000EF81F885868D8F3F19F4EF81F885168E76
:101F00000F900FBECE0104969E01255F3F4FB90191
:101F10000E940617882391F58F8198850E94A11150
:101F2000882329F1EF81F88580819181009759F408
:101F30000FB6F8940F92EF81F885828193810E9409
:101F40000E190F900FBE8F81988541962B853C8589
:101F5000B9010E944F168F8198850E944D110E94F1
:101F60005514882309F050CF0E94E10B4DCF8F818B
:101F700098850E944D110E94551446CF8F819885F7
:101F80000E944D110E9455141E868E852E960FB606
:101F9000F894DEBF0FBECDBFCF91DF910895DF93E0
:101FA000CF93CDB7DEB728970FB6F894DEBF0FBE3C
:101FB000CDBF9C838B837E836D8358874F8319822B
:101FC000EB81FC81828D882371F18B819C812D8135
:101FD0003E81B9010E940511EB81FC81828D815007
:101FE000EB81FC81828FEB81FC81858D8F3F89F4B1
:101FF000EB81FC818085882399F08B819C810896F8
:102000000E948516882361F0EF81F88581E0808346
:1020100007C0EB81FC81858D8F5FEB81FC81858F13
:1020200081E08A8301C01A828A8128960FB6F894CB
:10203000DEBF0FBECDBFCF91DF910895DF93CF9369
:1020400000D00F92CDB7DEB79B838A830FB6F8948A
:102050000F92EA81FB81828D89830F900FBE898167
:102060000F900F900F90CF91DF910895DF93CF9352
:1020700000D00F92CDB7DEB79B838A83EA81FB81C4
:10208000828D898389810F900F900F90CF91DF917E
:102090000895DF93CF9300D0CDB7DEB79A838983BD
:1020A000E981FA81808191810E94C10889819A81A8
:1020B0000E94C1080F900F90CF91DF910895DF9398
:1020C000CF9300D000D00F92CDB7DEB79A8389832B
:1020D0007C836B834D83E981FA81848D882391F41D
:1020E000E981FA8180819181009709F07FC0E981BF
:1020F000FA81828193810E948E19E981FA8113828B
:10210000128274C08D81882399F5E981FA816481F6
:102110007581E981FA81848D482F50E02B813C81C3
:10212000CB01B9010E94272CE981FA8124813581F4
:10213000E981FA81848D882F90E0820F931FE981D5
:10214000FA8195838483E981FA8124813581E9814B
:10215000FA81828193812817390708F447C0E98101
:10216000FA8180819181E981FA81958384833EC0DF
:10217000E981FA8166817781E981FA81848D482F2E
:1021800050E02B813C81CB01B9010E94272CE981D1
:10219000FA8126813781E981FA81848D882F90E048
:1021A000909581959F4F820F931FE981FA819783C4
:1021B0008683E981FA8126813781E981FA818081EC
:1021C00091812817390790F4E981FA8122813381BE
:1021D000E981FA81848D882F90E0909581959F4FB9
:1021E000820F931FE981FA8197838683E981FA81BF
:1021F000828D8F5FE981FA81828F0F900F900F900F
:102200000F900F90CF91DF910895DF93CF9300D07F
:1022100000D0CDB7DEB79A8389837C836B83E98155
:10222000FA8180819181009789F1E981FA81268183
:102230003781E981FA81848D882F90E0820F931F86
:10224000E981FA8197838683E981FA812681378142
:10225000E981FA81828193812817390740F0E98169
:10226000FA8180819181E981FA8197838683E9816E
:10227000FA8146815781E981FA81848D282F30E0E7
:102280008B819C81BA01A9010E94272C0F900F908D
:102290000F900F90CF91DF910895DF93CF9300D0EF
:1022A000CDB7DEB79A8389830FB6F8940F9215C025
:1022B000E981FA8181898823A9F089819A814196EF
:1022C0000E948516882311F00E946317E981FA8124
:1022D000868D8150E981FA81868FE981FA81868D28
:1022E000181634F3E981FA818FEF868F0F900FBEB5
:1022F0000FB6F8940F9215C0E981FA818085882382
:10230000A9F089819A8108960E948516882311F088
:102310000E946317E981FA81858D8150E981FA81F4
:10232000858FE981FA81858D181634F3E981FA8168
:102330008FEF858F0F900FBE0F900F90CF91DF9191
:102340000895DF93CF9300D00F92CDB7DEB79B8374
:102350008A830FB6F8940F92EA81FB81828D1982ED
:10236000882311F481E089830F900FBE89810F903B
:102370000F900F90CF91DF910895DF93CF9300D00E
:102380000F92CDB7DEB79B838A83EA81FB81828D72
:102390001982882311F481E0898389810F900F903D
:1023A0000F90CF91DF910895DF93CF9300D00F92DC
:1023B000CDB7DEB79B838A830FB6F8940F92EA817C
:1023C000FB81928DEA81FB81838D1982981711F42C
:1023D00081E089830F900FBE89810F900F900F903D
:1023E000CF91DF910895DF93CF9300D00F92CDB7B7
:1023F000DEB79B838A83EA81FB81928DEA81FB8130
:10240000838D1982981711F481E0898389810F9057
:102410000F900F90CF91DF910895AF92BF92CF921E
:10242000DF92EF92FF920F931F93DF93CF93CDB77D
:10243000DEB764970FB6F894DEBF0FBECDBF9F83A3
:102440008E83798768875B874A873D872C870E87CD
:10245000F88AEF86DA8AC98ABC8AAB8A8A859B8524
:1024600029893A89B9010E9496189C838B838B81B4
:102470009C81009709F499C0EB81FC812789308DFC
:102480008A859B850197820F931F9A8389838B810D
:102490009C8128853985EB89FC89AA85BB85B90192
:1024A0004E859F018D010E94771789819A812E8127
:1024B0003F814C855D85B9010E94220AEB81FC8138
:1024C000918380838F859889009731F0EF85F88913
:1024D0008B819C81918380830FB6F8940F928091B9
:1024E0005B058F5F80935B0580915805909159053E
:1024F000009769F48B819C819093590580935805CE
:1025000080915B058130A9F40E94D21712C080919E
:102510006005882371F4E0915805F091590596897A
:102520008E85891730F08B819C819093590580931B
:102530005805EB81FC81968980915E05891728F406
:10254000EB81FC81868980935E05809165058F5FB4
:1025500080936505EB81FC81968980915F058917E1
:1025600028F4EB81FC81868980935F05EB81FC81F7
:102570008689282F30E0C901880F991F880F991F7D
:10258000880F991F820F931FAC014A595A4F8B81B4
:102590009C819C012E5F3F4FCA01B9010E94210915
:1025A00081E08D830F900FBE02C08FEF8D838D81F0
:1025B000813071F480916005882351F0E0915805D5
:1025C000F091590596898E85981710F40E94E10BB9
:1025D0008D8164960FB6F894DEBF0FBECDBFCF914C
:1025E000DF911F910F91FF90EF90DF90CF90BF9000
:1025F000AF900895DF93CF9300D000D000D0CDB737
:10260000DEB79C838B830FB6F8940F922091580508
:10261000309159058B819C818217930711F41C829C
:102620001B828B819C81009739F480915805909191
:1026300059059E838D8304C08B819C819E838D83ED
:102640008D819E819A83898389819A8102960E94D5
:10265000D909E981FA8184899589009729F08981CE
:102660009A810C960E94D90989819A819C012E5FDA
:102670003F4F82EB95E0B9010E94210980915A05F4
:102680008F5F80935A05809165058F5F8093650504
:102690000F900FBE80916005882331F08B819C8163
:1026A000009711F40E94E10B26960FB6F894DEBF56
:1026B0000FBECDBFCF91DF910895DF93CF93CDB7FC
:1026C000DEB728970FB6F894DEBF0FBECDBF9E834E
:1026D0008D8378876F8319820E944914ED81FE8172
:1026E000208131818F819885820F931F9C838B83FA
:1026F000ED81FE812081318180915C0590915D05A5
:1027000082179307A8F4ED81FE81208131818B81AE
:102710009C818217930700F520915C0530915D053F
:102720008B819C8128173907B8F481E0898314C014
:10273000ED81FE81208131818B819C8182179307FD
:1027400048F020915C0530915D058B819C812817B4
:10275000390710F481E08983ED81FE818B819C81B2
:10276000918380838981882359F0809158059091C5
:10277000590502960E94D9098B819C810E944D18AF
:102780000E9455148A838A81882311F40E94E10BE8
:1027900028960FB6F894DEBF0FBECDBFCF91DF9164
:1027A0000895DF93CF9300D000D00F92CDB7DEB75E
:1027B0009D838C8319828C819D810097D1F00E942A
:1027C000491420915C0530915D058C819D81820FBB
:1027D000931F9B838A838091580590915905029697
:1027E0000E94D9098A819B810E944D180E9455142C
:1027F00089838981882311F40E94E10B0F900F9047
:102800000F900F900F90CF91DF910895AF92BF92EC
:10281000CF92DF92EF92FF920F93DF93CF930F92BD
:10282000CDB7DEB720E630E08DE697E1B90140E5AF
:1028300050E020E030E000E0EE24FF24CC24DD2452
:10284000AA24BB240E940D1289838981813051F40E
:10285000F89481E08093600510925D0510925C050C
:102860000E94A50B0F90CF91DF910F91FF90EF90F9
:10287000DF90CF90BF90AF900895DF93CF93CDB707
:10288000DEB7F894109260050E94DA0BCF91DF91C9
:102890000895DF93CF93CDB7DEB7809161058F5F49
:1028A00080936105CF91DF910895DF93CF9300D09E
:1028B00000D0CDB7DEB71A820FB6F8940F92809190
:1028C000610581508093610580916105882309F03D
:1028D0006CC080915B05882309F467C0198241C0F0
:1028E000E091AE05F091AF05868197819C838B8343
:1028F0008B819C810C960E94D9098B819C810296C8
:102900000E94D909EB81FC81968980915F05891726
:1029100028F4EB81FC81868980935F05EB81FC8143
:102920008689282F30E0C901880F991F880F991FC9
:10293000880F991F820F931F8A599A4F2B813C81D0
:102940002E5F3F4FB9010E942109EB81FC819689DE
:10295000E0915805F09159058689981710F081E0AB
:1029600089838091A905882309F0BACF80916205F7
:10297000882371F007C00E94141580916205815070
:1029800080936205809162058823A9F781E089839D
:102990008981813021F080916305813031F481E0BB
:1029A0008A83109263050E94E10B0F900FBE8A810B
:1029B0000F900F900F900F90CF91DF910895DF93BC
:1029C000CF9300D0CDB7DEB70FB6F8940F928091B9
:1029D0005C0590915D059A8389830F900FBE898174
:1029E0009A810F900F90CF91DF910895DF93CF934D
:1029F00000D00F92CDB7DEB7198280915C0590911F
:102A00005D059B838A838A819B810F900F900F9035
:102A1000CF91DF910895DF93CF93CDB7DEB780914B
:102A20005B05CF91DF910895DF93CF9300D000D065
:102A300000D0CDB7DEB780916105882309F0BBC017
:102A400080915C0590915D05019690935D05809362
:102A50005C0580915C0590915D050097D1F58091B2
:102A6000A5059091A6059C838B838091A7059091E5
:102A7000A8059093A6058093A5058B819C819093D2
:102A8000A8058093A705809164058F5F80936405F6
:102A9000E091A505F091A6058081882339F48FEF98
:102AA0009FEF909323018093220113C0E091A5052D
:102AB000F091A6050580F681E02D868197819E83A1
:102AC0008D83ED81FE818281938190932301809398
:102AD000220120915C0530915D0580912201909149
:102AE00023012817390708F46BC0E091A505F09180
:102AF000A6058081882339F48FEF9FEF90932301FF
:102B0000809322015DC0E091A505F091A6050580A6
:102B1000F681E02D868197819E838D83ED81FE81F4
:102B2000828193819A83898320915C0530915D0530
:102B300089819A812817390738F489819A8190937D
:102B40002301809322013CC08D819E8102960E94C8
:102B5000D909ED81FE8184899589009729F08D81BD
:102B60009E810C960E94D909ED81FE819689809103
:102B70005F05891728F4ED81FE81868980935F05C2
:102B8000ED81FE818689282F30E0C901880F991FC9
:102B9000880F991F880F991F820F931FAC014A5904
:102BA0005A4F8D819E819C012E5F3F4FCA01B90112
:102BB0000E9421099ACF809162058F5F8093620500
:102BC00026960FB6F894DEBF0FBECDBFCF91DF9132
:102BD0000895DF93CF9300D0CDB7DEB78091610524
:102BE000882349F081E08093630554C080915F059C
:102BF000815080935F0580915F05282F30E0C901E7
:102C0000880F991F880F991F880F991F820F931F94
:102C1000FC01EA59FA4F8081882341F380915F05D6
:102C2000282F30E0C901880F991F880F991F880F3E
:102C3000991F820F931F8A599A4F9A838983E9813A
:102C4000FA810180F281E02D82819381E981FA810C
:102C500092838183E981FA812181328189819A81FC
:102C600003962817390759F4E981FA810180F28126
:102C7000E02D82819381E981FA8192838183E981C8
:102C8000FA810180F281E02D868197819093590528
:102C9000809358050F900F90CF91DF910895DF93A7
:102CA000CF9300D000D000D0CDB7DEB79C838B830C
:102CB0007E836D834B815C8180915805909159058D
:102CC0009C01245F3F4FCA01B9010E946D098091A8
:102CD00058059091590502960E94D90920915C05EA
:102CE00030915D058D819E81820F931F9A83898328
:102CF00089819A810E944D1826960FB6F894DEBFFE
:102D00000FBECDBFCF91DF910895DF93CF9300D059
:102D100000D00F92CDB7DEB79D838C83EC81FD810F
:102D20000580F681E02D868197819B838A838A8145
:102D30009B810C960E94D90980916105882361F5D9
:102D40008A819B8102960E94D909EA81FB8196893A
:102D500080915F05891728F4EA81FB818689809339
:102D60005F05EA81FB818689282F30E0C901880F41
:102D7000991F880F991F880F991F820F931FAC010D
:102D80004A595A4F8A819B819C012E5F3F4FCA014D
:102D9000B9010E9421090AC08A819B819C01245F9C
:102DA0003F4F89EA95E0B9010E942109EA81FB8140
:102DB0009689E0915805F09159058689981718F081
:102DC00081E0898301C0198289810F900F900F9053
:102DD0000F900F90CF91DF910895DF93CF9300D0A4
:102DE000CDB7DEB79A83898380916405E981FA8142
:102DF000808380915C0590915D05E981FA819283E1
:102E000081830F900F90CF91DF910895DF93CF933F
:102E100000D000D00F92CDB7DEB79B838A837D832D
:102E20006C830FB6F8940F92EA81FB8190818091B8
:102E30006405981771F0EA81FB81218132818091CC
:102E40005C0590915D058217930718F081E08983F6
:102E50002FC020915C0530915D05EA81FB81818165
:102E60009281281B390BEC81FD818081918128178B
:102E70003907E0F4EC81FD8140815181EA81FB81D9
:102E80002181328180915C0590915D05B901681BBB
:102E9000790BCB01840F951FEC81FD819183808399
:102EA0008A819B810E94ED16198202C081E089838C
:102EB0000F900FBE89810F900F900F900F900F9081
:102EC000CF91DF910895DF93CF93CDB7DEB781E047
:102ED00080936305CF91DF910895DF93CF9300D066
:102EE000CDB7DEB79A8389830E940F18FDCF0F9369
:102EF0001F93DF93CF93CDB7DEB729970FB6F89422
:102F0000DEBF0FBECDBF9A8389837C836B834D83E5
:102F10003F832E831987088789819A8149962B815F
:102F20003C81B90148E050E00E94372CE981FA81E8
:102F300010A28D81853010F084E08D83E981FA81C3
:102F40008D81868BE981FA818D8181A389819A8126
:102F500002960E94110989819A810C960E9411099A
:102F6000E981FA8189819A81918780878D81282FD3
:102F700030E085E090E0821B930BE981FA81958730
:102F80008487E981FA8189819A81938B828B299642
:102F90000FB6F894DEBF0FBECDBFCF91DF911F916A
:102FA0000F910895DF93CF930F92CDB7DEB71982BB
:102FB00013C08981282F30E0C901880F991F880F1D
:102FC000991F880F991F820F931F8A599A4F0E9449
:102FD000E70889818F5F89838981853050F383E990
:102FE00095E00E94E7088CE995E00E94E70889EAED
:102FF00095E00E94E70882EB95E00E94E70883E9EC
:1030000095E09093A6058093A5058CE995E09093B3
:10301000A8058093A7050F90CF91DF910895DF93C6
:10302000CF9300D00F92CDB7DEB780915A05882399
:1030300071F10E9449148091B2051B82882311F41A
:1030400081E08B830E9455148B81882301F50FB694
:10305000F8940F92E091B705F091B80586819781B9
:103060009A83898389819A8102960E94D9098091E5
:103070005B05815080935B0580915A058150809358
:103080005A050F900FBE89819A810E94E6180F9011
:103090000F900F90CF91DF910895DF93CF9300D0E1
:1030A000CDB7DEB79A838983E0915805F091590531
:1030B00089819A819383828320915C0530915D059B
:1030C00089819A818217930770F48091A705909166
:1030D000A80520915805309159052E5F3F4FB90141
:1030E0000E946D091EC04091A5055091A6058091D2
:1030F0005805909159059C012E5F3F4FCA01B901B7
:103100000E946D09209122013091230189819A81C9
:103110008217930730F489819A81909323018093D9
:1031200022010F900F90CF91DF910895DF93CF93FD
:10313000CDB7DEB728970FB6F894DEBF0FBECDBF70
:103140009C838B837E836D8382E290E00E947B0868
:103150009A83898389819A81009769F18D819E8103
:10316000009739F48B819C810E947B0898878F831C
:1031700004C08D819E8198878F83E981FA818F8138
:103180009885908F878BE981FA818789908D009748
:1031900039F489819A810E94C1081A8219820BC070
:1031A000E981FA818789908D2B813C8165EA70E005
:1031B000A9010E94302C89819A8128960FB6F89433
:1031C000DEBF0FBECDBFCF91DF910895DF93CF93C8
:1031D00000D0CDB7DEB79A838983E981FA818789E8
:1031E000908D0E94C10889819A810E94C1080F9028
:1031F0000F90CF91DF910895DF93CF9300D0CDB79B
:10320000DEB780915805909159059A838983898109
:103210009A810F900F90CF91DF910895DF93CF9314
:1032200000D000D0CDB7DEB79C838B838B819C818F
:103230009A838983E981FA819689E0915805F09112
:1032400059058689981708F062C0E0915805F091F9
:1032500059058689282F30E085E090E0821B930B8A
:10326000E981FA8195878487E981FA8142855385CE
:10327000E981FA818689282F30E0C901880F991FDA
:10328000880F991F880F991F820F931F8A599A4F91
:1032900048175907A1F589819A8102960E94D90998
:1032A000E0915805F09159058689E981FA81868B6C
:1032B000E981FA81968980915F05891728F4E9816F
:1032C000FA81868980935F05E981FA818689282FB2
:1032D00030E0C901880F991F880F991F880F991F27
:1032E000820F931FAC014A595A4F89819A819C01E0
:1032F0002E5F3F4FCA01B9010E94210908C0E09129
:103300005805F09159058689E981FA81868B0F90DD
:103310000F900F900F90CF91DF910895DF93CF938F
:1033200000D000D0CDB7DEB79C838B838B819C818E
:103330009A8389838B819C81009709F447C0E98136
:10334000FA819689E981FA8181A1981709F43EC032
:1033500089819A8102960E94D909E981FA8181A125
:10336000E981FA81868BE981FA818689282F30E00C
:1033700085E090E0821B930BE981FA819587848731
:10338000E981FA81968980915F05891728F4E9819E
:10339000FA81868980935F05E981FA818689282FE1
:1033A00030E0C901880F991F880F991F880F991F56
:1033B000820F931FAC014A595A4F89819A819C010F
:1033C0002E5F3F4FCA01B9010E9421090F900F9053
:1033D0000F900F90CF91DF910895DF93CF93CDB7EA
:1033E000DEB72D970FB6F894DEBF0FBECDBF898331
:1033F0006A834B838981282F30E03D872C878C8519
:103400009D858130910509F48FC02C853D85223042
:1034100031052CF48C859D85009771F0ECC12C85CD
:103420003D852230310509F4F7C08C859D858330B8
:10343000910509F469C1DFC18B81282F30E03B87FA
:103440002A878A859B858130910509F445C02A85A4
:103450003B852230310529F08A859B850097A9F0AC
:10346000CAC1AAE3B0E0EAE3F0E08081482F8A8194
:10347000282F30E081E090E0022E02C0880F991FD3
:103480000A94E2F7842B8C93B6C1AAE3B0E0EAE396
:10349000F0E08081482F8A81282F30E081E090E0A1
:1034A00002C0880F991F2A95E2F7809584238C9398
:1034B000ABE3B0E0EBE3F0E08081482F8A81282F76
:1034C00030E081E090E0022E02C0880F991F0A943C
:1034D000E2F7842B8C938FC1AAE3B0E0EAE3F0E03B
:1034E0008081482F8A81282F30E081E090E002C05F
:1034F000880F991F2A95E2F7809584238C93ABE37C
:10350000B0E0EBE3F0E08081482F8A81282F30E0A3
:1035100081E090E0022E02C0880F991F0A94E2F722
:10352000809584238C9367C18B81282F30E0398765
:103530002887888599858130910509F445C02885BB
:1035400039852230310529F0888599850097A9F0C1
:1035500052C1A7E3B0E0E7E3F0E08081482F8A8121
:10356000282F30E081E090E0022E02C0880F991FE2
:103570000A94E2F7842B8C933EC1A7E3B0E0E7E323
:10358000F0E08081482F8A81282F30E081E090E0B0
:1035900002C0880F991F2A95E2F7809584238C93A7
:1035A000A8E3B0E0E8E3F0E08081482F8A81282F8B
:1035B00030E081E090E0022E02C0880F991F0A944B
:1035C000E2F7842B8C9317C1A7E3B0E0E7E3F0E0C8
:1035D0008081482F8A81282F30E081E090E002C06E
:1035E000880F991F2A95E2F7809584238C93A8E38E
:1035F000B0E0E8E3F0E08081482F8A81282F30E0B6
:1036000081E090E0022E02C0880F991F0A94E2F731
:10361000809584238C93EFC08B81282F30E03F83EB
:103620002E838E819F818130910509F445C02E81C2
:103630003F812230310529F08E819F810097A9F0CA
:10364000DAC0A4E3B0E0E4E3F0E08081482F8A81AF
:10365000282F30E081E090E0022E02C0880F991FF1
:103660000A94E2F7842B8C93C6C0A4E3B0E0E4E3B1
:10367000F0E08081482F8A81282F30E081E090E0BF
:1036800002C0880F991F2A95E2F7809584238C93B6
:10369000A5E3B0E0E5E3F0E08081482F8A81282FA0
:1036A00030E081E090E0022E02C0880F991F0A945A
:1036B000E2F7842B8C939FC0A4E3B0E0E4E3F0E056
:1036C0008081482F8A81282F30E081E090E002C07D
:1036D000880F991F2A95E2F7809584238C93A5E3A0
:1036E000B0E0E5E3F0E08081482F8A81282F30E0C8
:1036F00081E090E0022E02C0880F991F0A94E2F741
:10370000809584238C9377C08B81282F30E03D8374
:103710002C838C819D818130910509F445C02C81D9
:103720003D812230310529F08C819D810097A9F0DF
:1037300062C0A1E3B0E0E1E3F0E08081482F8A813C
:10374000282F30E081E090E0022E02C0880F991F00
:103750000A94E2F7842B8C934EC0A1E3B0E0E1E33E
:10376000F0E08081482F8A81282F30E081E090E0CE
:1037700002C0880F991F2A95E2F7809584238C93C5
:10378000A2E3B0E0E2E3F0E08081482F8A81282FB5
:1037900030E081E090E0022E02C0880F991F0A9469
:1037A000E2F7842B8C9327C0A1E3B0E0E1E3F0E0E3
:1037B0008081482F8A81282F30E081E090E002C08C
:1037C000880F991F2A95E2F7809584238C93A2E3B2
:1037D000B0E0E2E3F0E08081482F8A81282F30E0DA
:1037E00081E090E0022E02C0880F991F0A94E2F750
:1037F000809584238C932D960FB6F894DEBF0FBE70
:10380000CDBFCF91DF910895DF93CF93CDB7DEB7D2
:103810002D970FB6F894DEBF0FBECDBF89836A83A4
:103820004B838981282F30E03D872C878C859D85AF
:103830008130910509F44FC02C853D85223031053A
:103840002CF48C859D85009771F0ECC02C853D850E
:103850002230310509F477C08C859D858330910530
:1038600009F4A9C0DFC08B81282F30E03B872A876D
:103870008A859B85009731F02A853B85213031056B
:10388000B1F0D0C0ABE3B0E0EBE3F0E08081482FD3
:103890008A81282F30E081E090E0022E02C0880F5C
:1038A000991F0A94E2F7809584238C93BBC0ABE305
:1038B000B0E0EBE3F0E08081482F8A81282F30E0F0
:1038C00081E090E0022E02C0880F991F0A94E2F76F
:1038D000842B8C93A7C08B81282F30E039872887D1
:1038E00088859985009731F0288539852130310503
:1038F000B1F098C0A8E3B0E0E8E3F0E08081482FA1
:103900008A81282F30E081E090E0022E02C0880FEB
:10391000991F0A94E2F7809584238C9383C0A8E3CF
:10392000B0E0E8E3F0E08081482F8A81282F30E082
:1039300081E090E0022E02C0880F991F0A94E2F7FE
:10394000842B8C936FC08B81282F30E03F832E8394
:103950008E819F81009731F02E813F81213031058A
:10396000B1F060C0A5E3B0E0E5E3F0E08081482F6E
:103970008A81282F30E081E090E0022E02C0880F7B
:10398000991F0A94E2F7809584238C934BC0A5E39A
:10399000B0E0E5E3F0E08081482F8A81282F30E015
:1039A00081E090E0022E02C0880F991F0A94E2F78E
:1039B000842B8C9337C08B81282F30E03D832C8360
:1039C0008C819D81009731F02C813D812130310522
:1039D000B1F028C0A2E3B0E0E2E3F0E08081482F3C
:1039E0008A81282F30E081E090E0022E02C0880F0B
:1039F000991F0A94E2F7809584238C9313C0A2E365
:103A0000B0E0E2E3F0E08081482F8A81282F30E0A7
:103A100081E090E0022E02C0880F991F0A94E2F71D
:103A2000842B8C932D960FB6F894DEBF0FBECDBFBE
:103A3000CF91DF910895DF93CF9300D000D00F9204
:103A4000CDB7DEB78A836B838A81282F30E03D8330
:103A50002C834C815D8141305105B1F18C819D8178
:103A60008230910534F42C813D812115310571F0AE
:103A700084C04C815D814230510509F443C08C8182
:103A80009D818330910509F45BC077C0E9E3F0E0E4
:103A90008081482F50E08B81282F30E081E090E03A
:103AA00002C0880F991F2A95E2F79A01282339232B
:103AB0008B81882F90E0A90102C0559547958A9582
:103AC000E2F7CA01898359C0E6E3F0E08081482F1C
:103AD00050E08B81282F30E081E090E002C0880F19
:103AE000991F2A95E2F79A01282339238B81882F81
:103AF00090E0A90102C0559547958A95E2F7CA0161
:103B000089833BC0E3E3F0E08081482F50E08B8164
:103B1000282F30E081E090E002C0880F991F2A959D
:103B2000E2F79A01282339238B81882F90E0A9019D
:103B300002C0559547958A95E2F7CA0189831DC051
:103B4000E0E3F0E08081482F50E08B81282F30E0C7
:103B500081E090E002C0880F991F2A95E2F79A0150
:103B6000282339238B81882F90E0A90102C0559525
:103B700047958A95E2F7CA01898389810F900F9052
:103B80000F900F900F90CF91DF910895DF93CF9317
:103B900000D000D0CDB7DEB789836A838981282F12
:103BA00030E03C832B838B819C818130910549F1EE
:103BB0002B813C81223031052CF48B819C81009734
:103BC00061F05AC02B813C812230310571F18B812B
:103BD0009C8183309105E9F14FC0ABE3B0E0EBE3AA
:103BE000F0E08081482F8A81282F30E081E090E04A
:103BF000022E02C0880F991F0A94E2F784278C9343
:103C00003BC0A8E3B0E0E8E3F0E08081482F8A8180
:103C1000282F30E081E090E0022E02C0880F991F2B
:103C20000A94E2F784278C9327C0A5E3B0E0E5E38C
:103C3000F0E08081482F8A81282F30E081E090E0F9
:103C4000022E02C0880F991F0A94E2F784278C93F2
:103C500013C0A2E3B0E0E2E3F0E08081482F8A8164
:103C6000282F30E081E090E0022E02C0880F991FDB
:103C70000A94E2F784278C930F900F900F900F9087
:103C8000CF91DF910895DF93CF93CDB7DEB72C9717
:103C90000FB6F894DEBF0FBECDBF89836A838981DA
:103CA000282F30E03C872B878B859C8581309105C0
:103CB00009F43FC02B853C85223031052CF48B85DF
:103CC0009C85009771F0ACC02B853C852230310576
:103CD00009F457C08B859C858330910509F479C020
:103CE0009FC08A81282F30E03A87298789859A8565
:103CF00081309105B9F029853A852230310529F0C6
:103D000089859A85009731F08BC0EAE3F0E08FEF68
:103D1000808386C0EAE3F0E01082EBE3F0E08FEF0F
:103D200080837EC0EAE3F0E01082EBE3F0E01082F3
:103D300077C08A81282F30E038872F838F8198853C
:103D400081309105B9F02F8138852230310529F075
:103D50008F819885009731F063C0E7E3F0E08FEF43
:103D600080835EC0E7E3F0E01082E8E3F0E08FEFED
:103D7000808356C0E7E3F0E01082E8E3F0E01082D1
:103D80004FC08A81282F30E03E832D838D819E8114
:103D900081309105B9F02D813E812230310529F025
:103DA0008D819E81009731F03BC0E4E3F0E08FEF1E
:103DB000808336C0E4E3F0E01082E5E3F0E08FEFCB
:103DC00080832EC0E4E3F0E01082E5E3F0E01082AF
:103DD00027C08A81282F30E03C832B838B819C81F4
:103DE00081309105B9F02B813C812230310529F0D9
:103DF0008B819C81009731F013C0E1E3F0E08FEFFD
:103E000080830EC0E1E3F0E01082E2E3F0E08FEFA8
:103E1000808306C0E1E3F0E01082E2E3F0E010828C
:103E20002C960FB6F894DEBF0FBECDBFCF91DF91B9
:103E30000895DF93CF93CDB7DEB72C970FB6F894E4
:103E4000DEBF0FBECDBF89836A838981282F30E012
:103E50003C872B878B859C858130910571F12B8563
:103E60003C85223031052CF48B859C85009769F0C8
:103E70006BC02B853C8522303105B9F18B859C8543
:103E80008330910509F449C05FC08A81282F30E052
:103E90003A87298789859A85009731F029853A855F
:103EA0002130310529F050C0EBE3F0E010824CC026
:103EB000EBE3F0E08FEF808347C08A81282F30E06A
:103EC00038872F838F819885009731F02F8138852F
:103ED0002130310529F038C0E8E3F0E0108234C029
:103EE000E8E3F0E08FEF80832FC08A81282F30E055
:103EF0003E832D838D819E81009731F02D813E81FF
:103F00002130310529F020C0E5E3F0E010821CC02B
:103F1000E5E3F0E08FEF808317C08A81282F30E03F
:103F20003C832B838B819C81009731F02B813C81DA
:103F30002130310529F008C0E2E3F0E0108204C02E
:103F4000E2E3F0E08FEF80832C960FB6F894DEBFAB
:103F50000FBECDBFCF91DF910895DF93CF9300D0F7
:103F60000F92CDB7DEB789838981282F30E03B835C
:103F70002A838A819B818130910501F12A813B81CD
:103F8000223031052CF48A819B81009761F036C084
:103F90002A813B8122303105E1F08A819B81833087
:103FA000910511F12BC0ABE3B0E0EBE3F0E09081C1
:103FB000EBE3F0E0808189278C9320C0A8E3B0E098
:103FC000E8E3F0E09081E8E3F0E0808189278C93DA
:103FD00015C0A5E3B0E0E5E3F0E09081E5E3F0E0B3
:103FE000808189278C930AC0A2E3B0E0E2E3F0E08D
:103FF0009081E2E3F0E0808189278C930F900F900D
:104000000F90CF91DF910895DF93CF9300D000D030
:10401000CDB7DEB789836A838981282F30E03C835E
:104020002B838B819C8181309105D1F02B813C8148
:10403000223031052CF48B819C81009761F01EC0E9
:104040002B813C812230310581F08B819C81833032
:10405000910581F013C0EBE3F0E08A8180830EC00C
:10406000E8E3F0E08A81808309C0E5E3F0E08A813B
:10407000808304C0E2E3F0E08A8180830F900F9098
:104080000F900F90CF91DF910895DF93CF93CDB72D
:10409000DEB76D970FB6F894DEBF0FBECDBF8D8F24
:1040A00082E065E040E00E94041C82E066E040E0BF
:1040B0000E94041C8D8D882F90E0807190709595E2
:1040C0008795959587959595879595958795982F3B
:1040D00080E064E0492F0E94041C8D8D882F90E0C1
:1040E000807290709595879595958795959587950C
:1040F0009595879595958795982F80E065E0492F50
:104100000E94041C8D8D882F90E080749070082E82
:10411000892F000C881F990B000C881F991F982F5E
:1041200080E066E0492F0E94041C8D8D982F991F16
:104130009927991F80E067E0492F0E94041C82E0C4
:1041400067E041E00E94041C80E090E0A0E0B0E461
:10415000898F9A8FAB8FBC8F698D7A8D8B8D9C8D5B
:1041600020E030E04AEF54E40E941F02DC01CB0162
:104170008D8B9E8BAF8BB88F6D897E898F89988D43
:1041800020E030E040E85FE30E94790388232CF4CC
:1041900081E090E09C8B8B8B3FC06D897E898F89FD
:1041A000988D20E03FEF4FE757E40E94190318165F
:1041B0004CF5698D7A8D8B8D9C8D20E030E040E24E
:1041C00051E40E941F02DC01CB01BC01CD010E9421
:1041D0004900DC01CB019C8B8B8B0FC088EC90E0FD
:1041E0009A8B898B89899A890197F1F79A8B898BA8
:1041F0008B899C8901979C8B8B8B8B899C890097E1
:1042000069F714C06D897E898F89988D0E94490055
:10421000DC01CB019C8B8B8B8B899C89988B8F8746
:104220008F8598890197F1F7988B8F8782E067E0F7
:1042300040E00E94041C8D8D982F917080E064E016
:10424000492F0E94041C8D8D882F90E08270907001
:1042500095958795982F80E065E0492F0E94041C72
:104260008D8D882F90E084709070959587959595A9
:104270008795982F80E066E0492F0E94041C8D8D61
:10428000882F90E088709070959587959595879583
:1042900095958795982F80E067E0492F0E94041C30
:1042A00082E067E041E00E94041C80E090E0A0E032
:1042B000B0E48B879C87AD87BE876B857C858D85B9
:1042C0009E8520E030E04AEF54E40E941F02DC01AA
:1042D000CB018F839887A987BA876F817885898575
:1042E0009A8520E030E040E85FE30E94790388236C
:1042F0002CF481E090E09E838D833FC06F817885B0
:1043000089859A8520E03FEF4FE757E40E94190323
:1043100018164CF56B857C858D859E8520E030E0F8
:1043200040E251E40E941F02DC01CB01BC01CD013F
:104330000E944900DC01CB019E838D830FC088EC75
:1043400090E09C838B838B819C810197F1F79C8308
:104350008B838D819E8101979E838D838D819E812C
:10436000009769F714C06F81788589859A850E94C6
:104370004900DC01CB019E838D838D819E819A83D0
:10438000898389819A810197F1F79A83898382E0F1
:1043900067E040E00E94041C6D960FB6F894DEBF03
:1043A0000FBECDBFCF91DF910895DF93CF93CDB7EF
:1043B000DEB76D970FB6F894DEBF0FBECDBF8D8F01
:1043C00082E065E041E00E94041C82E066E040E09B
:1043D0000E94041C8D8D882F90E0807190709595BF
:1043E0008795959587959595879595958795982F18
:1043F00080E064E0492F0E94041C8D8D882F90E09E
:1044000080729070959587959595879595958795E8
:104410009595879595958795982F80E065E0492F2C
:104420000E94041C8D8D882F90E080749070082E5F
:10443000892F000C881F990B000C881F991F982F3B
:1044400080E066E0492F0E94041C8D8D982F991FF3
:104450009927991F80E067E0492F0E94041C82E0A1
:1044600067E041E00E94041C80E090E0A0E0B0E43E
:10447000898F9A8FAB8FBC8F698D7A8D8B8D9C8D38
:1044800020E030E04AEF54E40E941F02DC01CB013F
:104490008D8B9E8BAF8BB88F6D897E898F89988D20
:1044A00020E030E040E85FE30E94790388232CF4A9
:1044B00081E090E09C8B8B8B3FC06D897E898F89DA
:1044C000988D20E03FEF4FE757E40E94190318163C
:1044D0004CF5698D7A8D8B8D9C8D20E030E040E22B
:1044E00051E40E941F02DC01CB01BC01CD010E94FE
:1044F0004900DC01CB019C8B8B8B0FC088EC90E0DA
:104500009A8B898B89899A890197F1F79A8B898B84
:104510008B899C8901979C8B8B8B8B899C890097BD
:1045200069F714C06D897E898F89988D0E94490032
:10453000DC01CB019C8B8B8B8B899C89988B8F8723
:104540008F8598890197F1F7988B8F8782E067E0D4
:1045500040E00E94041C8D8D982F917080E064E0F3
:10456000492F0E94041C8D8D882F90E082709070DE
:1045700095958795982F80E065E0492F0E94041C4F
:104580008D8D882F90E08470907095958795959586
:104590008795982F80E066E0492F0E94041C8D8D3E
:1045A000882F90E088709070959587959595879560
:1045B00095958795982F80E067E0492F0E94041C0D
:1045C00082E067E041E00E94041C80E090E0A0E00F
:1045D000B0E48B879C87AD87BE876B857C858D8596
:1045E0009E8520E030E04AEF54E40E941F02DC0187
:1045F000CB018F839887A987BA876F817885898552
:104600009A8520E030E040E85FE30E947903882348
:104610002CF481E090E09E838D833FC06F8178858C
:1046200089859A8520E03FEF4FE757E40E94190300
:1046300018164CF56B857C858D859E8520E030E0D5
:1046400040E251E40E941F02DC01CB01BC01CD011C
:104650000E944900DC01CB019E838D830FC088EC52
:1046600090E09C838B838B819C810197F1F79C83E5
:104670008B838D819E8101979E838D838D819E8109
:10468000009769F714C06F81788589859A850E94A3
:104690004900DC01CB019E838D838D819E819A83AD
:1046A000898389819A810197F1F79A83898382E0CE
:1046B00067E040E00E94041C6D960FB6F894DEBFE0
:1046C0000FBECDBFCF91DF910895DF93CF93CDB7CC
:1046D000DEB76C970FB6F894DEBF0FBECDBF82E099
:1046E00065E042E00E94ED1982E066E042E00E944F
:1046F000ED1982E067E042E00E94ED1980E064E09D
:1047000042E00E94ED1980E065E042E00E94ED1970
:1047100080E066E042E00E94ED1980E067E042E060
:104720000E94ED1982E067E040E00E94041C80E0F6
:1047300090E0A8E4B2E4898F9A8FAB8FBC8F698D2B
:104740007A8D8B8D9C8D20E030E04AEF54E40E94FE
:104750001F02DC01CB018D8B9E8BAF8BB88F6D89D7
:104760007E898F89988D20E030E040E85FE30E94E9
:10477000790388232CF481E090E09C8B8B8B3FC0E5
:104780006D897E898F89988D20E03FEF4FE757E450
:104790000E94190318164CF5698D7A8D8B8D9C8DAE
:1047A00020E030E040E251E40E941F02DC01CB0136
:1047B000BC01CD010E944900DC01CB019C8B8B8B9D
:1047C0000FC088EC90E09A8B898B89899A89019730
:1047D000F1F79A8B898B8B899C8901979C8B8B8BAA
:1047E0008B899C89009769F714C06D897E898F89B0
:1047F000988D0E944900DC01CB019C8B8B8B8B89AF
:104800009C89988B8F878F8598890197F1F7988B72
:104810008F8783E30E94452082E30E94452088E23F
:104820000E9445208EE00E94452081E00E944520A4
:1048300086E00E94452080E090E0A0E8BFE38B87FF
:104840009C87AD87BE876B857C858D859E8520E0A6
:1048500030E04AEF54E40E941F02DC01CB018F8359
:104860009887A987BA876F81788589859A8520E09E
:1048700030E040E85FE30E94790388232CF481E074
:1048800090E09E838D833FC06F81788589859A856E
:1048900020E03FEF4FE757E40E94190318164CF54C
:1048A0006B857C858D859E8520E030E040E251E47B
:1048B0000E941F02DC01CB01BC01CD010E94490016
:1048C000DC01CB019E838D830FC088EC90E09C833C
:1048D0008B838B819C810197F1F79C838B838D81E6
:1048E0009E8101979E838D838D819E81009769F7BC
:1048F00014C06F81788589859A850E944900DC0102
:10490000CB019E838D838D819E819A83898389814A
:104910009A810197F1F79A8389836C960FB6F89480
:10492000DEBF0FBECDBFCF91DF910895DF93CF9350
:1049300000D000D00F92CDB7DEB78A836B83198287
:104940008A81282F30E03D832C838C819D818130AA
:10495000910531F02C813D812230310529F007C0CD
:104960008B818058898303C08B818054898389819E
:104970000E9445200F900F900F900F900F90CF91B5
:10498000DF910895DF93CF93CDB7DEB781E00E942A
:104990004520CF91DF910895DF93CF9300D00F9200
:1049A000CDB7DEB79B838A8319820EC08981282FF9
:1049B00030E08A819B81FC01E20FF31F80810E941D
:1049C000D52189818F5F89838981282F30E08A8171
:1049D0009B81FC01E20FF31F8081882339F70F9040
:1049E0000F900F90CF91DF910895DF93CF9300D078
:1049F0000F92CDB7DEB79B838A838A819B8127E2A2
:104A00008031920708F487C08A819B8120E137E2D8
:104A1000B9010E94DC2BCB0189838981805D0E94D2
:104A2000D5218981282F30E080E197E2A901489FB4
:104A30009001499F300D589F300D11248A819B8130
:104A4000821B930B9B838A838A819B8128EE33E0B0
:104A5000B9010E94DC2BCB0189838981805D0E9492
:104A6000D5218981282F30E088EE93E0A901489F65
:104A70009001499F300D589F300D11248A819B81F0
:104A8000821B930B9B838A838A819B8124E630E07F
:104A9000B9010E94DC2BCB0189838981805D0E9452
:104AA000D5218981282F30E08CE99FEFAC01249F2C
:104AB000C001259F900D349F900D11249C018A8187
:104AC0009B81820F931F9B838A838A819B812AE02B
:104AD00030E0B9010E94DC2BCB0189838981805DA4
:104AE0000E94D5218981882F90E09C01220F331FDD
:104AF000C901880F991F880F991F820F931F9095E6
:104B000081959F4F982F8A81890F89838981805D44
:104B10000E94D521E7C08A819B8153E0883E95079A
:104B200008F467C08A819B8128EE33E0B9010E94B6
:104B3000DC2BCB0189838981805D0E94D52189810D
:104B4000282F30E088EE93E0A901489F9001499F0B
:104B5000300D589F300D11248A819B81821B930B4D
:104B60009B838A838A819B8124E630E0B9010E947D
:104B7000DC2BCB0189838981805D0E94D5218981CD
:104B8000282F30E08CE99FEFAC01249FC001259FC6
:104B9000900D349F900D11249C018A819B81820F7E
:104BA000931F9B838A838A819B812AE030E0B9012D
:104BB0000E94DC2BCB0189838981805D0E94D521F5
:104BC0008981882F90E09C01220F331FC901880F33
:104BD000991F880F991F820F931F909581959F4F62
:104BE000982F8A81890F89838981805D0E94D521D0
:104BF00079C08A819B818436910508F447C08A81F7
:104C00009B8124E630E0B9010E94DC2BCB01898333
:104C10008981805D0E94D5218981282F30E08CE92F
:104C20009FEFAC01249FC001259F900D349F900DF4
:104C300011249C018A819B81820F931F9B838A830D
:104C40008A819B812AE030E0B9010E94DC2BCB01F4
:104C500089838981805D0E94D5218981882F90E098
:104C60009C01220F331FC901880F991F880F991FBC
:104C7000820F931F909581959F4F982F8A81890F5E
:104C800089838981805D0E94D5212CC08A819B8186
:104C90008A30910518F18A819AE0692F0E94D02B01
:104CA00089838981805D0E94D5218981882F90E048
:104CB0009C01220F331FC901880F991F880F991F6C
:104CC000820F931F909581959F4F982F8A81890F0E
:104CD00089838981805D0E94D52104C08A81805D9D
:104CE0000E94D5210F900F900F90CF91DF910895E2
:104CF000DF93CF9300D0CDB7DEB79A8389838981C4
:104D00009A818A30910528F48981805D0E94D5219D
:104D1000C8C089819A8184369105B0F489819A81CD
:104D20002AE030E0B9010E94DC2BCB01805D0E94BB
:104D3000D52189819A812AE030E0B9010E94DC2BDB
:104D4000805D0E94D521ADC089819A8123E0883E93
:104D5000920730F589819A8124E630E0B9010E94FA
:104D6000DC2BCB01805D0E94D52189819A812AE0CC
:104D700030E0B9010E94DC2BCB012AE030E0B90120
:104D80000E94DC2B805D0E94D52189819A812AE0D6
:104D900030E0B9010E94DC2B805D0E94D52181C0EA
:104DA00089819A8127E280319207B0F589819A81C1
:104DB00028EE33E0B9010E94DC2BCB01805D0E941C
:104DC000D52189819A8124E630E0B9010E94DC2B4B
:104DD000CB012AE030E0B9010E94DC2B805D0E940B
:104DE000D52189819A812AE030E0B9010E94DC2B2B
:104DF000CB012AE030E0B9010E94DC2B805D0E94EB
:104E0000D52189819A812AE030E0B9010E94DC2B0A
:104E1000805D0E94D52145C089819A8120E137E2D9
:104E2000B9010E94DC2BCB01805D0E94D5218981D4
:104E30009A8128EE33E0B9010E94DC2BCB012AE0F5
:104E400030E0B9010E94DC2B805D0E94D521898170
:104E50009A8124E630E0B9010E94DC2BCB012AE0E4
:104E600030E0B9010E94DC2B805D0E94D521898150
:104E70009A812AE030E0B9010E94DC2BCB012AE0C4
:104E800030E0B9010E94DC2B805D0E94D521898130
:104E90009A812AE030E0B9010E94DC2B805D0E94FB
:104EA000D5210F900F90CF91DF910895DF93CF938D
:104EB000CDB7DEB783E060E042E00E94ED1983E009
:104EC00061E042E00E94ED1983E062E042E00E946E
:104ED000ED1983E063E042E00E94ED1983E064E0B5
:104EE00040E00E94ED1983E065E040E00E94ED198A
:104EF00083E066E040E00E94ED1983E067E040E077
:104F00000E94ED1983E061E00E94191FCF91DF91AB
:104F10000895DF93CF93CDB7DEB761970FB6F894BE
:104F2000DEBF0FBECDBF198A188A1F86198AABC093
:104F300083E0698940E00E94041C84E0888B97C06C
:104F400083E068890E941B1D882309F08DC0898930
:104F5000482F50E08889882F90E09C0124503040F1
:104F6000CA01880F991F880F991F820F931FFC0198
:104F7000EC5DFE4F80818F8783E068890E941B1D56
:104F80008823D1F380E090E0A0E2B1E48B879C8796
:104F9000AD87BE876B857C858D859E8520E030E062
:104FA0004AEF54E40E941F02DC01CB018F839887F3
:104FB000A987BA876F81788589859A8520E030E056
:104FC00040E85FE30E94790388232CF481E090E0BD
:104FD0009E838D833FC06F81788589859A8520E087
:104FE0003FEF4FE757E40E94190318164CF56B8505
:104FF0007C858D859E8520E030E040E251E40E9472
:105000001F02DC01CB01BC01CD010E944900DC0183
:10501000CB019E838D830FC088EC90E09C838B83B3
:105020008B819C810197F1F79C838B838D819E817D
:1050300001979E838D838D819E81009769F714C0AF
:105040006F81788589859A850E944900DC01CB01B2
:105050009E838D838D819E819A83898389819A81A4
:105060000197F1F79A83898388898F5F888B888974
:10507000883008F465CF83E0698941E00E94041C10
:1050800089898F5F898B8989843008F451CF8F8516
:1050900061960FB6F894DEBF0FBECDBFCF91DF9102
:1050A0000895DF93CF93CDB7DEB780E060E042E0B4
:1050B0000E94ED1981E062E00E94431E81E060E001
:1050C0000E94E80D9093DB058093DA0581E060E0B3
:1050D0000E94E80D9093DD058093DC050E949D0DF4
:1050E0009093D5058093D40581E060E00E94E80D9F
:1050F0009093D9058093D80581E060E00E94E80D87
:105100009093D3058093D2050E9465230E94562771
:10511000CF91DF910895AF92BF92CF92DF92EF923D
:10512000FF920F93DF93CF93CDB7DEB70E94512844
:105130008CEF98E2E6EDF5E060E070E046E950E0E3
:1051400020E030E002E07F01CC24DD24AA24BB244F
:105150000E940D1281E29AE260E070E040E550E0CA
:1051600020E030E001E0EE24FF24CC24DD24AA245A
:10517000BB240E940D1286E69AE260E070E046E9E8
:1051800050E020E030E001E0EE24FF24CC24DD24D8
:10519000AA24BB240E940D128FE99BE260E070E01C
:1051A00040E550E020E030E001E0EE24FF24CC2494
:1051B000DD24AA24BB240E940D1289E79BE260E053
:1051C00070E040E550E020E030E001E0EE24FF2414
:1051D000CC24DD24AA24BB240E940D120E940614B4
:1051E00080E090E0CF91DF910F91FF90EF90DF9002
:1051F000CF90BF90AF9008950F931F93DF93CF93FD
:1052000000D000D0CDB7DEB79C838B83198285E6B2
:1052100090E00E94CC2407C18091CF05882F90E0B8
:105220008C0105541A4F0E948927F80180838091D0
:10523000CF05882F90E0FC01E554FA4F80818D3333
:1052400009F0C1C08091CF05882F90E0FC01E554A2
:10525000FA4F10820E94C22481E060E00E949624EE
:1052600085E790E00E94CC241092CF05A6C08091E3
:10527000CF05882F90E08C010B531A4F0E9489278D
:10528000F80180838091CF05882F90E0FC01EB53DB
:10529000FA4F80818D3309F060C08091CF05882F4F
:1052A00090E0FC01EB53FA4F10820E94C22481E08F
:1052B00060E00E9496248091DC059091DD0560E01D
:1052C00070E040E050E020E00E94070E88EC90E0A3
:1052D0000E94D1138091D0058130E1F487E890E0FD
:1052E0000E94CC241092D0058AEF90E00E94D11346
:1052F0008091DA059091DB0560E070E040E050E0DD
:1053000020E00E94070E8091D6059091D7050E945B
:10531000FA1223C00E94C22481E060E00E94962419
:105320008981823050F488E990E00E94CC24109268
:10533000CF0589818F5F898340C00E94C22481E0AC
:1053400060E00E9496248FEA90E00E94CC24809135
:10535000D6059091D7050E94FA128091CF05882F2B
:1053600090E0FC01EB53FA4F8081882371F090911B
:10537000CF0582E0692F0E9496248AE20E94D521FF
:105380008091CF058F5F8093CF058091CF058A30C4
:10539000A1F40E94C22481E060E00E9496248FEB79
:1053A00090E00E94CC2482E063E00E9496248FEC7F
:1053B00090E00E94CC241092CF058091CF058B30D5
:1053C00008F455CF18C08091CF05882F90E0FC01DC
:1053D000E554FA4F8081882371F09091CF0582E0E7
:1053E000692F0E9496248AE20E94D5218091CF05E0
:1053F0008F5F8093CF058091CF058A30A1F40E9402
:10540000C22481E060E00E9496248FEB90E00E942D
:10541000CC2482E063E00E9496248FEC90E00E940E
:10542000CC241092CF058091CF058B3008F4F4CEB8
:105430000F900F900F900F90CF91DF911F910F91D0
:105440000895DF93CF9300D000D000D0CDB7DEB762
:105450009E838D831C828091DC059091DD0560E048
:1054600070E04FEF5FEF20E00E94F20E8B838B81A4
:10547000813089F71A82198222C089819A81FC01C0
:10548000E554FA4F208189819A81FC01EB53FA4F50
:105490008081281751F48C818F5F8C838C818A30B6
:1054A00049F481E08093D00505C0E8E3F0E0108284
:1054B0001092D00589819A8101969A838983898186
:1054C0009A818A309105CCF21C82C5CF0F931F932D
:1054D000DF93CF9300D000D00F92CDB7DEB79D837E
:1054E0008C831B8219820AC08981882F90E0FC017D
:1054F000EB53FA4F108289818F5F898389818A30CB
:1055000098F31092CF058091DA059091DB0560E069
:1055100070E04FEF5FEF20E00E94F20E8A838A81F5
:10552000813079F70E94C22481E060E00E949624D5
:105530008CED90E00E94CC24D6C08091CF05882FBE
:1055400090E08C010B531A4F0E948927F801808349
:105550008091CF05882F90E0FC01EB53FA4F8081BA
:105560008D3309F090C08091CF05882F90E0FC0129
:10557000EB53FA4F10820E94C22481E060E00E9447
:1055800096248091DC059091DD0560E070E040E0BC
:1055900050E020E00E94070E88EC90E00E94D113BA
:1055A0008091D005813009F051C00E94C22481E071
:1055B00060E00E94962484EE90E00E94CC248EE568
:1055C00091E00E94D1131092D0050E94C22481E084
:1055D00060E00E9496248EEE90E00E94CC2482E04F
:1055E00060E00E9496248CEF90E00E94CC240E9400
:1055F00089278093D10588EC90E00E94D113809197
:10560000D105813379F48091D8059091D90560E076
:1056100070E040E050E020E00E94070E88EC90E04F
:105620000E94D1138091D105823309F78091D20570
:105630009091D30560E070E040E050E020E00E94EF
:10564000070E88EC90E00E94D113D1CF0E94C224B3
:1056500081E060E00E9496248B81823050F489E0E2
:1056600091E00E94CC241092CF058B818F5F8B83B9
:105670003AC00E94C22481E060E00E9496248FEA32
:1056800090E00E94CC248091CF05882F90E0FC010F
:10569000EB53FA4F8081882371F09091CF0582E01F
:1056A000692F0E9496248AE20E94D5218091CF051D
:1056B0008F5F8093CF058091CF058A30A1F40E943F
:1056C000C22481E060E00E9496248FEB90E00E946B
:1056D000CC2482E063E00E9496248FEC90E00E944C
:1056E000CC241092CF058091CF058B3008F425CFC4
:1056F00008CFDF93CF9300D00F92CDB7DEB79B8357
:105700008A838091D2059091D30560E070E04FEFDD
:105710005FEF20E00E94F20E89838981813089F752
:1057200080E060E041E00E94041C88E893E10E9470
:10573000D11380E060E040E00E94041CE2CFDF93E0
:10574000CF9300D000D0CDB7DEB79C838B83809100
:10575000D8059091D90560E070E04FEF5FEF20E051
:105760000E94F20E8A838A81813089F7198214C0DF
:10577000E8E3F0E08981282F30E081E090E002C08A
:10578000880F991F2A95E2F780838AEF90E00E94A4
:10579000D11389818F5F89838981873048F3D7CF7F
:1057A000991B79E004C0991F961708F0961B881F73
:1057B0007A95C9F780950895AA1BBB1B51E107C0D4
:1057C000AA1FBB1FA617B70710F0A61BB70B881F91
:1057D000991F5A95A9F780959095BC01CD01089520
:1057E0002F923F924F925F926F927F928F929F92F1
:1057F000AF92BF92CF92DF92EF92FF920F931F93DF
:10580000CF93DF93CDB7DEB7CA1BDB0B0FB6F8948F
:10581000DEBF0FBECDBF09942A88398848885F84CF
:105820006E847D848C849B84AA84B984C884DF8040
:10583000EE80FD800C811B81AA81B981CE0FD11D24
:105840000FB6F894DEBF0FBECDBFED010895FB018A
:10585000DC0102C001900D9241505040D8F70895EC
:10586000DC0101C06D9341505040E0F70895FB0109
:10587000DC014150504048F001900D920020C9F7E2
:1058800001C01D9241505040E0F70895F894FFCFB9
:1058900049444C4500456E746572204E6577205032
:1058A0006173733A00456E746572205061737320A2
:1058B000416761696E3A002A50617373776F726451
:1058C0002053617665642A002A57726F6E672070D4
:1058D0006173732054727920616761696E2A002AAE
:1058E00053797374656D204C6F636B65642A004D4A
:1058F00061782050617373203130204E756D002027
:105900002A54727920416761696E2A004C4F4749D9
:105910004E203A002A57656C636F6D652A00312E60
:105920004C69676874204C4544532000322E4F5018
:10593000454E20444F4F5220002A57726F6E672009
:1059400050617373776F72643A00000000000000CA
:105950000000FFFF3738392D3435362B3132332AEA
:045960002E303D2F79
:00000001FF
